:100000000C9434000C943E000C943E000C943E0082
:100010000C943E000C943E000C943E000C943E0068
:100020000C943E000C943E000C943E000C943E0058
:100030000C943E000C9440000C943E000C943E0046
:100040000C943E000C943E000C943E000C943E0038
:100050000C943E000C943E000C943E000C943E0028
:100060000C943E000C943E0011241FBECFEFD8E04C
:10007000DEBFCDBF0E9458000C946A000C940000B3
:100080001F920F920FB60F9211248F939F939BB1E3
:1000900080E189278BB983EF9CE79093850080935B
:1000A00084009F918F910F900FBE0F901F90189515
:1000B00080E18AB986EE99EF909385008093840061
:1000C0001092800085E08093810081E080936E0033
:0800D0007894FFCFF894FFCFF4
:00000001FF
